:100000000C9434000C9451000C9451000C94510049
:100010000C94D9060C9451000C9451000C9451008E
:100020000C9451000C9451000C9451000C9451000C
:100030000C9451000C9451000C9421070C94510025
:100040000C9451000C9451000C94B3050C94510085
:100050000C9451000C9451000C9451000C945100DC
:100060000C9451000C94510011241FBECFEFD8E026
:10007000DEBFCDBF11E0A0E0B1E0E6E8F6E102C0EE
:1000800005900D92A030B107D9F721E0A0E0B1E0D2
:1000900001C01D92AF37B207E1F70E9453000C94E4
:1000A000410B0C940000CF93DF93CDB7DEB70E94D5
:1000B0007B0780913101882F90E082309105C9F053
:1000C0008330910534F4009771F08130910571F01F
:1000D0001AC08430910599F0843091056CF0853018
:1000E000910581F010C00E944B030DC00E94D20206
:1000F0000AC00E94E00107C00E94970104C00E944C
:10010000840001C00000D5CFCF93DF93CDB7DEB719
:1001100081EC90E028E8FC01208380912F01882366
:1001200009F0C0C080910901882F90E090933E01B2
:1001300080933D01109232011092330110923401EC
:10014000109235018091320190913301A0913401D8
:10015000B09135018093730190937401A093750160
:10016000B09376018FEF80936C018AC020913201A9
:1001700030913301409134015091350180917301E8
:1001800090917401A0917501B09176010296A11D24
:10019000B11D82179307A407B50798F48FEF8093DA
:1001A0006C018091320190913301A0913401B091A2
:1001B00035018093730190937401A0937501B093FE
:1001C000760180916D01833090F110926E01209143
:1001D00032013091330140913401509135018091C9
:1001E000770190917801A0917901B0917A010F96F1
:1001F000A11DB11D82179307A407B507C0F48FEFA7
:1002000080936E0110926D018091320190913301C3
:10021000A0913401B09135018093730190937401E2
:10022000A0937501B09376018FEF80936C0180915C
:100230006C01882329F180916E01882309F11092C5
:100240006C0180913D0190913E010E949905809141
:100250006D018F5F80936D0180916D01833081F41A
:100260008091320190913301A0913401B091350118
:100270008093770190937801A0937901B0937A01EC
:100280002091320130913301409134015091350178
:1002900080E29FEBA2E0B0E082179307A407B507C6
:1002A00008F064CF109232011092330110923401A1
:1002B000109235010E94990985E08093310181EC0B
:1002C00090E028E9FC012083DF91CF910895CF933E
:1002D000DF93CDB7DEB700002091320130913301BA
:1002E00040913401509135018091730190917401D6
:1002F000A0917501B09176010296A11DB11D8217E2
:100300009307A407B50740F780913201909133011C
:10031000A0913401B09135018093730190937401E1
:10032000A0937501B0937601DF91CF910895CF939B
:10033000DF93CDB7DEB7809125010E9499050E9419
:100340006701809125010E9499050E9467018091B3
:1003500026010E9499050E946701809126010E9452
:1003600099050E946701809127010E9499050E94CA
:100370006701809127010E9499050E9467012091E1
:100380003201309133014091340150913501809117
:100390006F0190917001A0917101B091720182176B
:1003A0009307A407B50748F40E94990910923101F8
:1003B00081EC90E028E9FC012083DF91CF91089542
:1003C000CF93DF93CDB7DEB78FEF80937D01809120
:1003D0007D01882341F181E08093310110927D01FC
:1003E00080910A01815080936A0110926B011092F2
:1003F0003201109233011092340110923501809134
:10040000320190913301A0913401B0913501809374
:10041000730190937401A0937501B09376018FEFEF
:1004200080936C011AC08091320190913301A091A8
:100430003401B09135019C0180913A0190913B01CA
:100440008217930750F40E94990985E08093310147
:1004500081EC90E028E9FC012083DF91CF910895A1
:10046000CF93DF93CDB7DEB72091320130913301C6
:10047000409134015091350180916A01882F90E0BC
:10048000880F991F845A9E4FFC0180819181CC0175
:10049000A0E0B0E0281739074A075B0759F40E942B
:1004A000990985E08093310181EC90E028E9FC0115
:1004B000208375C08091320190913301A091340165
:1004C000B09135010097A105B105F1F480916A0161
:1004D000482F50E080916A01882F90E09C012F5FA7
:1004E0003F4F429FC001439F900D529F900D11249A
:1004F00099230CF4019695958795815C9E4FFC019C
:10050000808180935B0144C020913201309133019E
:10051000409134015091350180916B01882F90E01A
:10052000880F991F845A9E4FFC0180819181CC01D4
:10053000A0E0B0E0281739074A075B0749F580912A
:100540006B018F5F80936B0180916A01482F50E0AF
:1005500080916A01882F90E09C012F5F3F4F429F5E
:10056000C001439F900D529F900D112499230CF4CC
:100570000196959587959C0180916B01882F90E05D
:10058000820F931F815C9E4FFC01808180935B01F1
:1005900090915B0180917E01892B80935B01DF91BB
:1005A000CF910895CF93DF93CDB7DEB7809131011E
:1005B000813009F06DC020913201309133014091BA
:1005C0003401509135018091730190917401A09193
:1005D0007501B09176010296A11DB11D8217930796
:1005E000A407B50798F48FEF80936C0180913201D6
:1005F00090913301A0913401B09135018093730142
:1006000090937401A0937501B093760180916C0171
:10061000882341F010926C010E94300280915B01AE
:100620000E949905209132013091330140913401AB
:1006300050913501E0915C01F0915D0180910A01DA
:10064000682F70E0E69FC001E79F900DF69F900D28
:100650001124CC01A0E0B0E0281739074A075B0756
:10066000B8F01092320110923301109234011092BE
:1006700035010E94990985E08093310182EC90E078
:1006800026E3FC01208381EC90E028E9FC01208333
:10069000DF91CF910895CF93DF9300D000D01F92C8
:1006A000CDB7DEB7F89480910101823009F02EC2F7
:1006B00019820FC08981882F90E0895F9E4FFC01CD
:1006C00080818E3F19F481E080932E0189818F5FB4
:1006D0008983909102018981891760F380912E01AD
:1006E000882381F080912D018F5F80932D010E94DE
:1006F000990985E08093310181EC90E028E9FC01C3
:1007000020830EC280912B018F5F80932B0183E0A9
:100710008093010180910801882F90E0853F910529
:1007200009F467C1863F91054CF4813F910509F4B6
:10073000D8C1843F910509F49BC1DCC1863F910576
:1007400009F463C0873F910509F0D4C180910A0183
:100750008F7080930A0180910A01882309F449C0AF
:1007600080910A01883008F044C0809130018823CC
:1007700009F03FC010927E0180910901807880933A
:100780007E0180917E01869580937E018091090192
:100790008F77809309019091090180912F0198171B
:1007A000E9F481EC90E028E8FC01208386EC90E0FD
:1007B000FC018081898386EC90E0FC018081898343
:1007C00010927D0110923201109233011092340187
:1007D0001092350182E08093310116C00E94990980
:1007E00085E08093310181EC90E028E9FC012083D1
:1007F0000BC00E94990985E08093310181EC90E063
:1008000028E9FC01208381C180C180910901809386
:100810002501809125018093370180913701282F90
:1008200030E0C901880F991F880F991F820F931F0D
:10083000CC96909339018093380180913801909142
:100840003901CC01A0E0B0E0BC01CD010E94DB0980
:10085000DC01CB012CE53FE842EA50E4BC01CD01CC
:100860000E94410ADC01CB01BC01CD010E94AF090D
:10087000DC01CB0190935D0180935C0180915C0170
:1008800090915D019C0140E050E08EE19CE6A2E089
:10089000B0E0BC01CD010E94CC0ADA01C9019093FD
:1008A0005D0180935C0181E080936A0122C08091A8
:1008B0006A01882F90E060915C0170915D01209148
:1008C0006A01222F30E02F5F3F4FA901649F900102
:1008D000659F300D749F300D1124880F991F845A25
:1008E0009E4FFC013183208380916A018F5F80934A
:1008F0006A0180916A018730D0F280913701682FB8
:1009000080E790E00E94160B80915C0190915D0160
:10091000BC0185E790E00E942C0B80915C019091D6
:100920005D019C0140E050E08CE291E0DC010E941E
:10093000EE0ADC01CB0180936F0190937001A093CC
:100940007101B093720180916F0190917001A0913B
:100950007101B0917201AC01BD0187E790E00E9486
:10096000240B80912701807F8093270180910A01C9
:100970008F7080930A0180910A01843018F484E01A
:1009800080930A019091270180910A01892B80931D
:10099000270180913001813009F581EC90E028E851
:1009A000FC01208310923201109233011092340125
:1009B000109235018091320190913301A091340160
:1009C000B09135018093730190937401A0937501E8
:1009D000B093760183E08093310197C00E9499091A
:1009E00085E08093310181EC90E028E9FC012083CF
:1009F0008CC081EC90E028E8FC01208310926A0111
:100A000028C080916A01882F90E020916A01222FEE
:100A100030E02E5F3F4F295F3E4FF9012081815C1E
:100A20009E4FFC01208380916A01882F90E00296FE
:100A3000895F9E4FFC01208180916A01882F90E0A0
:100A40009395622F0E94160B80916A018F5F8093AD
:100A50006A0180916A018C31A0F20E94990981ECAF
:100A600090E028E9FC01208385E0809331014DC0AE
:100A700081EC90E028E8FC01208380910901882F17
:100A800090E090933B0180933A0180913A019091DC
:100A90003B01982F882790933B0180933A01209146
:100AA0003A0130913B0180910A01882F90E0822B1E
:100AB000932B90933B0180933A0180913A0190915E
:100AC0003B01BC0180E690E00E942C0B0E9499093A
:100AD00081EC90E028E9FC01208385E080933101DE
:100AE00014C08FEF80936E0110926D0184E08093AB
:100AF00031010BC00E94990981EC90E028E9FC01CA
:100B0000208385E08093310100000AC00E9499098A
:100B100081EC90E028E9FC01208385E0809331019D
:100B200078940F900F900F900F900F90DF91CF91CE
:100B30000895CF93DF931F92CDB7DEB7898300006E
:100B400080EC90E0FC018081882F90E080729927F2
:100B50000097B1F386EC90E02981FC0120830F908F
:100B6000DF91CF9108951F920F9200905F000F9236
:100B700011242F933F934F935F936F937F938F93A2
:100B80009F93AF93BF93EF93FF93CF93DF93CDB733
:100B9000DEB780910101823008F0F7C080EC90E070
:100BA000FC018081882F90E080719927009709F1DE
:100BB00086EC90E0FC01808180933C01109207015B
:100BC0008EEF809308018EEF809309018EEF809362
:100BD0000A0184E0809302011092030181EC90E00D
:100BE00028E8FC0120831092310182E0809301010A
:100BF000CCC080EC90E0FC01808188230CF0C5C063
:100C000080910101882331F481E08093010185E026
:100C10008093310180EC90E0FC018081882F90E08E
:100C200084709927009769F480910201882F90E0E1
:100C300026EC30E0F9012081895F9E4FFC01208382
:100C400012C080910201882F90E0895F9E4F2EEFA5
:100C5000FC01208386EC90E0FC01808180933C01C4
:100C600081E080932E01809102018F5F80930201C9
:100C700080910301815080930301809102018E31A4
:100C800010F010920301809102018230B9F5909129
:100C9000070180910801981731F580910801882F8C
:100CA00090E0853F9105B1F0863F91053CF4813F8E
:100CB000910541F0843F910549F010C0883F9105AE
:100CC0006CF404C081E0809303010CC082E0809347
:100CD000030108C08CE18093030104C082E080938B
:100CE000030100000BC086EC90E0FC018081809342
:100CF0003C010E94990985E08093310180910301B4
:100D0000882391F480910201833070F080912E014C
:100D1000882351F481EC90E028E8FC0120831092B4
:100D2000310182E08093010110923201109233016F
:100D3000109234011092350180910201813029F521
:100D400080910701803F20F0809107018E3FE9F4F8
:100D500086EC90E0FC01808180933C01109232018E
:100D60001092330110923401109235010E949909BA
:100D700085E08093310182EC90E026E3FC01208342
:100D800081EC90E028E9FC012083DF91CF91FF9175
:100D9000EF91BF91AF919F918F917F916F915F91F3
:100DA0004F913F912F910F9000925F000F901F90F5
:100DB00018951F920F9200905F000F9211248F934D
:100DC0009F93EF93FF93CF93DF9300D0CDB7DEB720
:100DD00086E290E0FC0180818983898180728A8328
:100DE000809100019A8189278A83898180930001FB
:100DF000809100018072809300018A81882F90E0A9
:100E000080729927009779F080910001882F90E0F7
:100E100080729927009739F080913101823019F45E
:100E20008FEF80937D010F900F90DF91CF91FF9115
:100E3000EF919F918F910F9000925F000F901F9004
:100E400018951F920F9200905F000F9211242F931C
:100E50003F934F935F936F937F938F939F93AF9342
:100E6000BF93EF93FF93CF93DF93CDB7DEB780911E
:100E7000320190913301A0913401B0913501019676
:100E8000A11DB11D8093320190933301A0933401D1
:100E9000B0933501809101018130C9F48091320114
:100EA00090913301A0913401B0913501853078F0F3
:100EB000809129018F5F809329010E94990985E023
:100EC0008093310181EC90E028E9FC012083DF91DF
:100ED000CF91FF91EF91BF91AF919F918F917F91B2
:100EE0006F915F914F913F912F910F9000925F0012
:100EF0000F901F9018950F931F93CF93DF9300D0FF
:100F000000D01F92CDB7DEB782E590E00E94080BBB
:100F1000898389818F3F29F460E082E590E00E9417
:100F2000160B81E590E00E94080B898389818F3F31
:100F300029F460E081E590E00E94160B80E590E0E6
:100F40000E94080B898389818F3F29F460E080E546
:100F500090E00E94160B80E990E00E94080B8983C4
:100F600089818F3F29F460E080E990E00E94160BB0
:100F70001092320110923301109234011092350117
:100F800010922F0185E08093310110923001109270
:100F90002D011092290110922B0110922C01109218
:100FA000280110922A010E94990987E290E0FC0131
:100FB000108288E290E02FE0FC01208386E290E03E
:100FC000FC0180818F7080932F0180912F01682F09
:100FD00080E190E00E94160B80912F01882319F088
:100FE0001092300103C081E08093300180E790E0EF
:100FF0000E94080B80933701809137018F3F51F495
:1010000080E38093370180913701682F80E790E07B
:101010000E94160B80913701282F30E0C901880FFC
:10102000991F880F991F820F931FCC9690933901B7
:10103000809338018091380190913901CC01A0E072
:10104000B0E0BC01CD010E94DB09DC01CB012CE545
:101050003FE842EA50E4BC01CD010E94410ADC01B4
:10106000CB01BC01CD010E94AF09DC01CB01909303
:101070005D0180935C0180915C0190915D019C0118
:1010800040E050E08EE19CE6A2E0B0E0BC01CD0182
:101090000E94CC0ADA01C90190935D0180935C0142
:1010A00081E080936A0122C080916A01882F90E0DC
:1010B00060915C0170915D0120916A01222F30E006
:1010C0002F5F3F4FA901649F9001659F300D749F72
:1010D000300D1124880F991F845A9E4FFC013183D3
:1010E000208380916A018F5F80936A0180916A01F9
:1010F0008730D0F280915C0190915D01BC0185E761
:1011000090E00E942C0B80915C0190915D019C010C
:1011100040E050E08CE291E0DC010E94EE0ADC014C
:10112000CB0180936F0190937001A0937101B093F4
:10113000720110927E01809137018093250180E534
:101140008093260187E6809327018CE291E09093BB
:101150003B0180933A0110926A0131C080916A018B
:10116000082F10E080916A01882F90E093950E94EB
:10117000080B282FC801815C9E4FFC0120838091C1
:101180006A01882F90E0815C9E4FFC0180818F3F37
:1011900089F480916A01882F90E0815C9E4F27E856
:1011A000FC01208380916A01882F90E0939567E885
:1011B0000E94160B80916A018F5F80936A01809173
:1011C0006A018C3158F280E690E00E94100B9093F7
:1011D0003B0180933A0180913A0190913B018F3F0E
:1011E000FFEF9F0731F080913A0190913B0100970A
:1011F00079F48CE291E090933B0180933A018091E5
:101200003A0190913B01BC0180E690E00E942C0BDA
:1012100010926D018FEF80936E0186E490E0FC01E7
:10122000108287E490E029EFFC01208384E490E0C1
:1012300023E0FC01208385E490E025E430E0F9011F
:1012400020812B60FC0120838EE690E02EE630E0CA
:10125000F90120812A60FC01208384E290E024E2ED
:1012600030E0F90120812560FC01208386E890E0D0
:101270002DE131E0FC013183208380E890E022E21F
:10128000FC01208381E890E029E1FC0120838AE8C9
:1012900090E02FE830E0FC013183208385E290E08C
:1012A00025E230E0F90120812E7FFC0120838AE2D3
:1012B00090E02AE230E0F90120812260FC012083E5
:1012C0008AE290E02AE230E0F90120812E7FFC01E1
:1012D000208385EC90E0FC01108284EC90E02FEC00
:1012E000FC01208382EC90E026E3FC01208381EC6A
:1012F00090E028E9FC01208388E690E028E630E0D1
:10130000F90120812260FC0120838CE690E02CE62C
:1013100030E0F90120812062FC01208378940F9055
:101320000F900F900F900F90DF91CF911F910F9121
:101330000895CF93DF93CDB7DEB7109201011092DD
:101340002E01109202018FEF80930301109205018C
:101350001092040110920101DF91CF91089570D095
:1013600088F09F5790F0B92F9927B751A0F0D1F08E
:10137000660F771F881F991F1AF0BA95C9F712C018
:10138000B13081F077D0B1E0089574C0672F782F25
:101390008827B85F39F0B93FCCF386957795679584
:1013A000B395D9F73EF490958095709561957F4FF0
:1013B0008F4F9F4F0895E89409C097FB3EF4909596
:1013C0008095709561957F4F8F4F9F4F9923A9F01E
:1013D000F92F96E9BB279395F695879577956795AD
:1013E000B795F111F8CFFAF4BB0F11F460FF1BC0F1
:1013F0006F5F7F4F8F4F9F4F16C0882311F096E984
:1014000011C0772321F09EE8872F762F05C0662331
:1014100071F096E8862F70E060E02AF09A95660FEA
:10142000771F881FDAF7880F9695879597F90895A3
:1014300057FD9058440F551F59F05F3F71F0479585
:10144000880F97FB991F61F09F3F79F0879508956A
:10145000121613061406551FF2CF4695F1DF08C089
:10146000161617061806991FF1CF869571056105A6
:1014700008940895E894BB2766277727CB0197F94E
:1014800008950BD078C069D028F06ED018F095235D
:1014900009F05AC05FC01124EECFCADFA0F3959FB8
:1014A000D1F3950F50E0551F629FF001729FBB274B
:1014B000F00DB11D639FAA27F00DB11DAA1F649FF7
:1014C0006627B00DA11D661F829F2227B00DA11DAA
:1014D000621F739FB00DA11D621F839FA00D611D30
:1014E000221F749F3327A00D611D231F849F600D51
:1014F000211D822F762F6A2F11249F5750408AF08A
:10150000E1F088234AF0EE0FFF1FBB1F661F771F15
:10151000881F91505040A9F79E3F510570F014C0AC
:10152000AACF5F3FECF3983EDCF3869577956795FD
:10153000B795F795E7959F5FC1F7FE2B880F911D33
:101540009695879597F9089597F99F6780E870E0D9
:1015500060E008959FEF80EC089500240A94161629
:10156000170618060906089500240A941216130691
:10157000140605060895092E0394000C11F488231F
:1015800052F0BB0F40F4BF2B11F460FF04C06F5F3B
:101590007F4F8F4F9F4F0895A1E21A2EAA1BBB1BAE
:1015A000FD010DC0AA1FBB1FEE1FFF1FA217B3072F
:1015B000E407F50720F0A21BB30BE40BF50B661F45
:1015C000771F881F991F1A9469F760957095809509
:1015D00090959B01AC01BD01CF0108950E94F90ACD
:1015E000A59F900DB49F900DA49F800D911D112477
:1015F0000895A29FB001B39FC001A39F700D811DEC
:101600001124911DB29F700D811D1124911D08950B
:10161000F999FECF92BD81BDF89A992780B50895BA
:10162000A8E1B0E042E050E00C94330B262FF9998A
:10163000FECF1FBA92BD81BD20BD0FB6F894FA9AB5
:10164000F99A0FBE01960895242F0E94170B252F9B
:101650000E94170B0C942C0B0E94160B272F0C9436
:10166000170BDC01CB01FC01F999FECF06C0F2BDDE
:10167000E1BDF89A319600B40D9241505040B8F750
:061680000895F894FFCF6D
:00000001FF
